:10095E00160A003F0006005B004F0066006D007D2A
:08096E000007007F006F00800C
:10094100E4FFFEE4FDFC0DBD00010CBC04F8BDFBA1
:0C095100F50FBF00010EEF64C84E70E708
:01095D002277
:10097700EF25E0240AF808E6F5A0D2B0C2801209F4
:0709870041D28020B1FD22E6
:10080000E4F508F509E590648060FAE590B4FE0F20
:100810007508007509017F017E0012097780ECE5FB
:1008200090B4FD0F7508007509027F027E00120961
:100830007780ECE590B4FB0F7508007509037F0322
:100840007E0012097780ECE590B4F70F750800750B
:1008500009047F047E0012097780ECE590B4EF0F65
:100860007508007509057F057E0012097780ECE5A3
:1008700090B4DF0F7508007509067F067E00120927
:100880007780ECE590B4BF0F7508007509077F0706
:100890007E0012097780ECE590B47F0F7508007533
:1008A00009087F087E0012097780EC7590FFD2B1AD
:0508B000C2B0020805C2
:10098E00C2B0D2B17590FF120800120941E4F59081
:01099E002236
:030000000208B53E
:0C08B500787FE4F6D8FD75811F0208FC76
:1008C10002098EE493A3F8E493A34003F68001F2B6
:1008D10008DFF48029E493A3F85407240CC8C33338
:1008E100C4540F4420C8834004F456800146F6DF07
:1008F100E4800B010204081020408090095EE47E30
:10090100019360BCA3FF543F30E509541FFEE493FB
:10091100A360010ECF54C025E060A840B8E493A3C2
:10092100FAE493A3F8E493A3C8C582C8CAC583CAED
:10093100F0A3C8C582C8CAC583CADFE9DEE780BEA5
:010976000080
:00000001FF
